{
  "_format": "hh-sol-artifact-1",
  "contractName": "Transactions",
  "sourceName": "contracts/Transactions.sol",
  "abi": [
    {
      "anonymous": false,
      "inputs": [
        {
          "indexed": false,
          "internalType": "address",
          "name": "from",
          "type": "address"
        },
        {
          "indexed": false,
          "internalType": "address",
          "name": "receiver",
          "type": "address"
        },
        {
          "indexed": false,
          "internalType": "uint256",
          "name": "amount",
          "type": "uint256"
        },
        {
          "indexed": false,
          "internalType": "uint256",
          "name": "timestamp",
          "type": "uint256"
        }
      ],
      "name": "Transfer",
      "type": "event"
    },
    {
      "inputs": [
        {
          "internalType": "address payable",
          "name": "receiver",
          "type": "address"
        },
        {
          "internalType": "uint256",
          "name": "amount",
          "type": "uint256"
        }
      ],
      "name": "sendTransaction",
      "outputs": [],
      "stateMutability": "nonpayable",
      "type": "function"
    }
  ],
  "bytecode": "0x608060405234801561001057600080fd5b5061024d806100206000396000f3fe608060405234801561001057600080fd5b506004361061002b5760003560e01c8063d709deb714610030575b600080fd5b61004a600480360381019061004591906100b7565b61004c565b005b7f9ed053bb818ff08b8353cd46f78db1f0799f31c9e4458fdb425c10eccd2efc44338383426040516100819493929190610120565b60405180910390a15050565b60008135905061009c816101e9565b92915050565b6000813590506100b181610200565b92915050565b600080604083850312156100ca57600080fd5b60006100d88582860161008d565b92505060206100e9858286016100a2565b9150509250929050565b6100fc816101b3565b82525050565b61010b81610165565b82525050565b61011a816101a9565b82525050565b60006080820190506101356000830187610102565b61014260208301866100f3565b61014f6040830185610111565b61015c6060830184610111565b95945050505050565b600061017082610189565b9050919050565b600061018282610189565b9050919050565b600073ffffffffffffffffffffffffffffffffffffffff82169050919050565b6000819050919050565b60006101be826101c5565b9050919050565b60006101d0826101d7565b9050919050565b60006101e282610189565b9050919050565b6101f281610177565b81146101fd57600080fd5b50565b610209816101a9565b811461021457600080fd5b5056fea2646970667358221220cca163156bddfc79413b1fee6708c6596e01e93d670ecd23c0f990a1ece2ad7364736f6c63430008040033",
  "linkReferences": {},
  "deployedLinkReferences": {}
}